{
  "contractName": "Calculator",
  "abi": [
    {
      "inputs": [
        {
          "internalType": "int256",
          "name": "x",
          "type": "int256"
        },
        {
          "internalType": "int256",
          "name": "y",
          "type": "int256"
        }
      ],
      "name": "add",
      "outputs": [
        {
          "internalType": "int256",
          "name": "result",
          "type": "int256"
        }
      ],
      "stateMutability": "pure",
      "type": "function",
      "constant": true
    },
    {
      "inputs": [
        {
          "internalType": "int256",
          "name": "x",
          "type": "int256"
        },
        {
          "internalType": "int256",
          "name": "y",
          "type": "int256"
        }
      ],
      "name": "sub",
      "outputs": [
        {
          "internalType": "int256",
          "name": "result",
          "type": "int256"
        }
      ],
      "stateMutability": "pure",
      "type": "function",
      "constant": true
    },
    {
      "inputs": [
        {
          "internalType": "int256",
          "name": "x",
          "type": "int256"
        },
        {
          "internalType": "int256",
          "name": "y",
          "type": "int256"
        }
      ],
      "name": "mul",
      "outputs": [
        {
          "internalType": "int256",
          "name": "result",
          "type": "int256"
        }
      ],
      "stateMutability": "pure",
      "type": "function",
      "constant": true
    },
    {
      "inputs": [
        {
          "internalType": "int256",
          "name": "x",
          "type": "int256"
        },
        {
          "internalType": "int256",
          "name": "y",
          "type": "int256"
        }
      ],
      "name": "div",
      "outputs": [
        {
          "internalType": "int256",
          "name": "result",
          "type": "int256"
        }
      ],
      "stateMutability": "pure",
      "type": "function",
      "constant": true
    }
  ],
  "bytecode": "0x608060405234801561001057600080fd5b5061054b806100206000396000f3fe608060405234801561001057600080fd5b506004361061004c5760003560e01c80634350913814610051578063a5f3c23b14610081578063adefc37b146100b1578063bbe93d91146100e1575b600080fd5b61006b600480360381019061006691906101a4565b610111565b60405161007891906101f3565b60405180910390f35b61009b600480360381019061009691906101a4565b610127565b6040516100a891906101f3565b60405180910390f35b6100cb60048036038101906100c691906101a4565b61013d565b6040516100d891906101f3565b60405180910390f35b6100fb60048036038101906100f691906101a4565b610153565b60405161010891906101f3565b60405180910390f35b6000818361011f919061026c565b905092915050565b6000818361013591906102d6565b905092915050565b6000818361014b919061036a565b905092915050565b6000818361016191906103fe565b905092915050565b600080fd5b6000819050919050565b6101818161016e565b811461018c57600080fd5b50565b60008135905061019e81610178565b92915050565b600080604083850312156101bb576101ba610169565b5b60006101c98582860161018f565b92505060206101da8582860161018f565b9150509250929050565b6101ed8161016e565b82525050565b600060208201905061020860008301846101e4565b92915050565b7f4e487b7100000000000000000000000000000000000000000000000000000000600052601260045260246000fd5b7f4e487b7100000000000000000000000000000000000000000000000000000000600052601160045260246000fd5b60006102778261016e565b91506102828361016e565b9250826102925761029161020e565b5b600160000383147f8000000000000000000000000000000000000000000000000000000000000000831416156102cb576102ca61023d565b5b828205905092915050565b60006102e18261016e565b91506102ec8361016e565b9250817f7fffffffffffffffffffffffffffffffffffffffffffffffffffffffffffffff038313600083121516156103275761032661023d565b5b817f800000000000000000000000000000000000000000000000000000000000000003831260008312161561035f5761035e61023d565b5b828201905092915050565b60006103758261016e565b91506103808361016e565b9250827f8000000000000000000000000000000000000000000000000000000000000000018212600084121516156103bb576103ba61023d565b5b827f7fffffffffffffffffffffffffffffffffffffffffffffffffffffffffffffff0182136000841216156103f3576103f261023d565b5b828203905092915050565b60006104098261016e565b91506104148361016e565b9250827f7fffffffffffffffffffffffffffffffffffffffffffffffffffffffffffffff04821160008413600084131616156104535761045261023d565b5b817f800000000000000000000000000000000000000000000000000000000000000005831260008412600084131616156104905761048f61023d565b5b827f800000000000000000000000000000000000000000000000000000000000000005821260008413600084121616156104cd576104cc61023d565b5b827f7fffffffffffffffffffffffffffffffffffffffffffffffffffffffffffffff058212600084126000841216161561050a5761050961023d565b5b82820290509291505056fea2646970667358221220c390f9d39616ba19e7f723eb610e7365a4f85474f0c44603c6a5bfd5e8f6d26a64736f6c634300080b0033",
  "immutableReferences": {},
  "source": "pragma solidity ^0.8.11;\r\n\r\ncontract Calculator {\r\n\r\n    function add(int256 x, int256 y) public pure returns (int256 result) {\r\n        return x+y;\r\n    }\r\n\r\n    function sub(int256 x, int256 y) public pure returns (int256 result) {\r\n        return x-y;\r\n    }\r\n\r\n    function mul(int256 x, int256 y) public pure returns (int256 result) {\r\n        return x*y;\r\n    }\r\n\r\n    function div(int256 x, int256 y) public pure returns (int256 result) {\r\n        return x/y;\r\n    }\r\n\r\n}",
  "sourcePath": "D:\\00.Win10\\02.workspace\\110-2\\01.BlockchainPriciplesAndApplications\\HW1\\Calculator\\contracts\\Calculator.sol",
  "compiler": {
    "name": "solc",
    "version": "0.8.11+commit.d7f03943.Emscripten.clang"
  },
  "schemaVersion": "3.4.4",
  "updatedAt": "2022-03-06T07:20:41.379Z",
  "networkType": "ethereum",
  "devdoc": {
    "kind": "dev",
    "methods": {},
    "version": 1
  },
  "userdoc": {
    "kind": "user",
    "methods": {},
    "version": 1
  }
}